:100000000C9467010C948F010C948F010C948F0158
:100010000C948F010C948F010C948F010C948F0120
:100020000C948F010C948F010C948F010C948F0110
:100030000C948F010C948F010C948F010C948F0100
:100040000C943B220C948F010C94AB220C948522CF
:100050000C948F010C948F010C948F010C948F01E0
:100060000C94DD220C948F0100407A10F35A00A00A
:10007000724E18090010A5D4E80000E87648170071
:1000800000E40B54020000CA9A3B000000E1F505B1
:10009000000080969800000040420F000000A086FB
:1000A00001000000102700000000E803000000002D
:1000B0006400000000000A000000000001000000D1
:1000C00000002C76D888DC674F0823DFC1DFAE59EB
:1000D000E1B1B796E5E3E453C63AE651997696E87E
:1000E000E6C28426EB898C9B62ED407C6FFCEFBC02
:1000F0009C9F40F2BAA56FA5F490055A2AF75C932D
:100100006B6CF9676DC11BFCE0E40D47FEF520E662
:10011000B500D0ED902E0300943577050080841E45
:10012000080000204E0A000000C80C333333330FA0
:10013000986E12831141EF8D2114893BE65516CF3D
:10014000FEE6DB18D1844B381BF77C1D901DA4BB49
:10015000E424203284725E228100C9F124ECA1E5FE
:100160003D27626C6E6B696E66006D637500302EA4
:10017000302E300066772D7479706500544D504CE8
:100180003339755A6C47743056006275696C640077
:1001900046656220313320323032342031383A35EE
:1001A000393A303500626C796E6B00312E332E3265
:1001B00000682D6265617400343500627566662DD5
:1001C000696E003235360064657600417264756987
:1001D0006E6F20556E6F006370750041546D6567DA
:1001E000613332385000636F6E0057353130300064
:1001F000000000000000240027002A00000000008A
:10020000250028002B000000000023002600290004
:1002100004040404040404040202020202020303AC
:1002200003030303010204081020408001020408B4
:100230001020010204081020000000080002010044
:10024000000304070000000000000000920192017A
:100250009201920192019201920192019201920106
:1002600092019201920192019201920192019201F6
:1002700092019201920192019201920192019201E6
:10028000920192019201920192019201900A9101D0
:100290006C0A91014C0A260A910191019101910188
:1002A00091019101910191019101910191019101BE
:1002B00091019101910191019101910191019101AE
:1002C0009101910191019101910191018B241124DE
:1002D0001FBECFEFD8E0DEBFCDBF13E0A0E0B1E09E
:1002E000E2EEFBE602C005900D92AE30B107D9F701
:1002F00026E0AEE0B3E001C01D92AD34B207E1F7F5
:1003000011E0C7E6D1E004C02197FE010E94F0345D
:10031000C636D107C9F70E9480250C94EF350C949E
:100320000000089508958CBD9DBD089520E3FC0153
:1003300020833296862F82958F706F706A3030F4EA
:10034000605D6293682F8111F5CF0895695CF9CFE4
:10035000FC01818D928D0895833081F028F48130E5
:1003600099F08230A9F008958730A9F08830C9F05B
:100370008430B1F4809180008F7D03C08091800033
:100380008F7780938000089584B58F7784BD08951A
:1003900084B58F7DFBCF8091B0008F778093B000C4
:1003A00008958091B0008F7DF9CF1F93CF93DF9395
:1003B000282F30E0F901E85CFD4F8491F901EC5DF4
:1003C000FD4FD491F901E05FFD4FC491CC23A9F01A
:1003D000162F81110E94AC01EC2FF0E0EE0FFF1FF1
:1003E000E450FE4FA591B4918FB7F894EC911111A0
:1003F00008C0D095DE23DC938FBFDF91CF911F9192
:100400000895DE2BF8CFCF93DF9390E0FC01EC5DF5
:10041000FD4F2491805F9D4FFC0184918823C9F09A
:1004200090E0880F991FFC01EE50FE4FA591B4910A
:10043000FC01E450FE4FC591D49161110DC09FB7EE
:10044000F8948C91209582238C938881282328838B
:100450009FBFDF91CF910895623051F49FB7F89418
:100460003C91822F809583238C93E8812E2BEFCFB4
:100470008FB7F894EC912E2B2C938FBFEACF1F935C
:10048000CF93DF93182FEB0161E00E9403022097C6
:1004900039F460E0812FDF91CF911F910C94D50149
:1004A000CF3FD10511F461E0F5CFE12FF0E0E85C3A
:1004B000FD4FE491E33031F140F4E130B1F0E2304E
:1004C000E1F0C038D1057CF7E4CFE73029F1E8301E
:1004D00059F1E430B1F78091800080628093800010
:1004E000D0938B00C0938A0004C084B5806884BD1B
:1004F000C7BDDF91CF911F91089584B5806284BDFF
:10050000C8BDF7CF80918000806880938000D09331
:100510008900C0938800EDCF8091B00080688093FF
:10052000B000C093B300E5CF8091B00080628093AB
:10053000B000C093B400DDCF8E3008F08E508770CD
:10054000806480937C0080917A00806480937A003C
:1005500080917A0086FDFCCF80917800909179009F
:1005600008953FB7F8948091400490914104A09180
:100570004204B091430426B5A89B05C02F3F19F053
:100580000196A11DB11D3FBFBA2FA92F982F882713
:10059000BC01CD01620F711D811D911D42E0660FEE
:1005A000771F881F991F4A95D1F708958F929F92C0
:1005B000AF92BF92CF92DF92EF92FF926B017C01DC
:1005C0000E94B1024B015C01C114D104E104F104A9
:1005D000B9F00E94B102681979098A099B09683E3D
:1005E00073408105910580F321E0C21AD108E1082A
:1005F000F10888EE880E83E0981EA11CB11CE4CFA0
:10060000FF90EF90DF90CF90BF90AF909F908F9032
:1006100008952FB7F89460913C0470913D04809147
:100620003E0490913F042FBF0895089508950895C2
:100630004F925F926F927F92AF92BF92CF92DF9272
:10064000EF92FF920F931F93CF93DF93EC016B0117
:100650007B01E40EF51E8B015801AC18BD080E1588
:100660001F0511F10E940903688779878A879B8794
:10067000E881F9810284F385E02DCE01099597FF89
:1006800023C00E940903488459846A847B846419C6
:100690007509860997094C805D806E807F8064159E
:1006A00075058605970520F3C501DF91CF911F9150
:1006B0000F91FF90EF90DF90CF90BF90AF907F9021
:1006C0006F905F904F900895F80181938F01C4CF90
:1006D000AF92BF92CF92DF92EF92FF920F931F9350
:1006E000CF93DF936C017B018B01040F151FEB018E
:1006F0005E01AE18BF08C017D10759F06991D60145
:10070000ED91FC910190F081E02DC6010995892BB6
:1007100079F7C501DF91CF911F910F91FF90EF9075
:10072000DF90CF90BF90AF900895FC01538D448D22
:10073000252F30E0842F90E0821B930B541710F08C
:10074000CF96089501970895FC01918D828D981799
:1007500061F0A28DAE0FBF2FB11D5D968C91928D71
:100760009F5F9F73928F90E008958FEF9FEF0895A2
:10077000FC01918D828D981731F0828DE80FF11D6B
:10078000858D90E008958FEF9FEF0895FC01918D86
:10079000228D892F90E0805C9F4F821B91098F737F
:1007A0009927089581E694E00E94C60321E0892BF1
:1007B00009F420E0822F089580E090E0892B29F051
:1007C0000E94D20381110C9400000895FC01A48DB5
:1007D000A80FB92FB11DA35ABF4F2C91848D90E063
:1007E00001968F739927848FA689B7892C93A08946
:1007F000B1898C91837080648C93938D848D9813D0
:1008000006C00288F389E02D80818F7D8083089562
:10081000EF92FF920F931F93CF93DF93EC0181E050
:10082000888F9B8D8C8D98131AC0E889F9898081F7
:1008300085FF15C09FB7F894EE89FF896083E8892A
:10084000F98980818370806480839FBF81E090E01C
:10085000DF91CF911F910F91FF90EF900895F62EA9
:100860000B8D10E00F5F1F4F0F731127E02E8C8D43
:100870008E110CC00FB607FCFACFE889F989808188
:1008800085FFF5CFCE010E94E603F1CFEB8DEC0F93
:10089000FD2FF11DE35AFF4FF0829FB7F8940B8FA5
:1008A000EA89FB8980818062CFCF682F81E694E05E
:1008B0000C940804CF93DF93EC01888D8823B9F062
:1008C000AA89BB89E889F9898C9185FD03C080815B
:1008D00086FD0DC00FB607FCF7CF8C9185FFF2CFD8
:1008E000808185FFEDCFCE010E94E603E9CFDF9145
:1008F000CF91089520915003260F3327331F2132C3
:100900003105ECF420919903FC0190E080E0243063
:1009100069F082E00895A09150032191AC01405DFF
:100920005C4FA40FB52FB11D2C930196861798F339
:1009300080915003680F6093500380E0089581E038
:1009400008951092990381E08093980310927303A5
:1009500061E082E10E94D50161E083E10E94D5015E
:10096000E9EBF0E080818E7F808380818D7F8083C2
:1009700088E48093B80085E48093BC000895CF9309
:10098000DF9391E090932F038823B9F0C091B800D2
:10099000D091BA008091BC008A7B8093BC0060E05B
:1009A00082E10E94D50160E083E10E94D5010E94AE
:1009B000A104D093BA00C093B800DF91CF910895FD
:1009C000E091360480913504E81730F4F0E0E15FFF
:1009D000FC4F808190E008958FEF9FEF08959091F4
:1009E0003604809135042FEF3FEF981748F4E92F34
:1009F000F0E0E15FFC4F208130E09F5F9093360490
:100A0000C90108958091350490913604891B990B92
:100A10000895CF92DF92EF92FF920F931F93CF939F
:100A2000DF937C01CB018A0120919F03222389F06F
:100A3000EB016B01C40ED51ECC15DD0569F0699183
:100A4000D701ED91FC910190F081E02DC70109954E
:100A5000F3CF642F0E947A04C801DF91CF911F91D8
:100A60000F91FF90EF90DF90CF900895CF93DF9399
:100A70001F92CDB7DEB7698320919F032223F9F03F
:100A800020913304203258F021E030E0FC01338320
:100A9000228390E080E00F90DF91CF9108958091C4
:100AA0003404E82FF0E0E056FC4F998190838F5F8B
:100AB000809334048093330481E090E0ECCF61E0D4
:100AC000CE0101960E947A04F7CFCF92DF92EF9287
:100AD000FF920F931F93CF93DF93FC01C48121E01A
:100AE00020939F03C093C0031092340410923304E8
:100AF0008385682B8EEF94E00E943605D0913304F5
:100B0000D13208F092C00E94B1026B017C01809149
:100B10009903811165C082E08093990381E08093FD
:100B200098038FEF8093970310929603D0939503C9
:100B3000A0EAB3E0E5E7F3E080E0D81385C01092C7
:100B4000740380917403CC0FC82BC09374038091FD
:100B50007303813009F07CC0109273030E94B102CC
:100B60006B017C01809174038093BB0080919B0397
:100B700090919C03A0919D03B0919E03892B8A2B99
:100B80008B2B99F00E94B10200919B0310919C0362
:100B900020919D0330919E036C197D098E099F0958
:100BA0000617170728073907E0F18091BC0083FD7D
:100BB000D9CF85EC8093BC000E94B1026B017C010F
:100BC00080919903823009F445C0809197038F3F4B
:100BD00061F180919703803241F18091970325C0A4
:100BE00080919B0390919C03A0919D03B0919E03E3
:100BF000892B8A2B8B2B09F48ACF0E94B10200919A
:100C00009B0310919C0320919D0330919E036C19CE
:100C10007D098E099F09061717072807390708F06D
:100C200076CF80919A030E94BF04109234041092F0
:100C3000330410929F03DF91CF911F910F91FF908A
:100C4000EF90DF90CF9008959D9191938F5F75CF36
:100C500085EEB0CF80919B0390919C03A0919D0362
:100C6000B0919E03892B8A2B8B2B09F4A9CF0E946C
:100C7000B10200919B0310919C0320919D03309140
:100C80009E036C197D098E099F090617170728070F
:100C9000390708F095CFC5CFFC0120812EBD9B01FF
:100CA0002150310941F051810DB407FEFDCF4EB501
:100CB0005EBD4193F5CF61507109860F971F0DB44A
:100CC00007FEFDCF2EB5FC0120830895E091C203FD
:100CD000F091C30380819091C103892B8083089593
:100CE000E091C203F091C30390818091C10380958C
:100CF0008923808308958EBD00000DB407FEFDCFCB
:100D00008EB50895AF92BF92CF92DF92EF92FF928D
:100D10000F931F93CF93DF93CDB7DEB728970FB60E
:100D2000F894DEBF0FBECDBF8C017B016A018091BC
:100D300060048333E1F45801A40EB51EA016B10679
:100D400009F46FC00E94700680EF0E947B06812F1D
:100D50000E947B06802F0E947B060F5F1F4FF701CA
:100D600081917F010E947B060E946606E7CF5B01AE
:100D7000A40EB51E8433C1F40E94700619830A8341
:100D80008D2D80688B83CC8264E070E0CE0101966B
:100D90000E944C06AE14BF0409F441C0F7018191D2
:100DA0007F010E947B06F6CF0E9470060F3F11055F
:100DB00009F028F419820A8384E08B830CC017FDA4
:100DC00017C019820A8333E0169507953A95E1F723
:100DD000007E0C600B8386E0C816D104A0F5F701F5
:100DE000DE011496EA15FB0599F081918D93FACFF7
:100DF000C80126E0969587952A95E1F7807E1983AC
:100E00000A830115104C10F48461D7CF8C61D5CFC3
:100E1000B6016D5F7F4FCE0101960E944C060E9485
:100E20006606C60128960FB6F894DEBF0FBECDBF8A
:100E3000DF91CF911F910F91FF90EF90DF90CF90B6
:100E4000BF90AF90089563E070E0CE0101960E94DC
:100E50004C06F70181917F010E947B06AE14BF040E
:100E6000C1F7DDCFCF93DF931F92CDB7DEB7898374
:100E700041E050E0BE016F5F7F4F90E080E00E9454
:100E800082060F90DF91CF91089590E02091600449
:100E9000233339F40C96982F990F990F990F80E00E
:100EA00008954896F8CFDA01E091C503F0E0FE2FEF
:100EB000EE27E60FF71F90E0982F8827A901BD01C4
:100EC0008E0F9F1F0C948206CF93DF9300D0CDB777
:100ED000DEB779836A8322E030E0AE014F5F5F4F77
:100EE00060E170E00E9453070F900F90DF91CF9167
:100EF0000895CF93DF9300D0CDB7DEB779836A83AF
:100F000022E030E0AE014F5F5F4F64E070E00E948E
:100F100053070F900F90DF91CF910895CF93DF93F8
:100F20001F92CDB7DEB72091C50330E0322F2227C4
:100F3000260F371F90E0982F8827498341E050E023
:100F4000BE016F5F7F4F820F931F0E9482060F903A
:100F5000DF91CF910895CF93DF931F92CDB7DEB786
:100F60006983DC01ED91FC910280F381E02D41E089
:100F700050E0BE016F5F7F4F09950F90DF91CF91D9
:100F80000895FC019485FB018485981303C081E0DA
:100F9000943008F080E00895CF93DF931F92CDB78F
:100FA000DEB76983DC01ED91FC910280F381E02DD5
:100FB00041E050E0BE016F5F7F4F09950F90DF91D8
:100FC000CF9108950895FF920F931F93CF93DF93CE
:100FD000EB01FC01178A168A2A81211109C02B8195
:100FE000211106C02C81211103C02D81222301F182
:100FF00041155105E9F08A01FC01F08C80E591E092
:101000000E949301AE014E5F5F4F24E030E06CE040
:1010100070E08F2D0E945307B8018F2D0E94640746
:1010200081E090E0DF91CF911F910F91FF900895A3
:1010300080E0F7CFFC01848595850895FC018489C3
:10104000958908952BEC31E0FC0131832083FB016D
:101050004089518962897389FC0142835383648387
:1010600075830895DC01ED91FC91048CF58DE02DE4
:10107000099490E080E008958EE00E949C02BC01FB
:10108000990F880B990B0E94403220E030E040EA33
:1010900050E40E949F3220E030E040E85AE30E9492
:1010A0009F322AE037ED43E25CE30E94F733089574
:1010B00090E080E00E94550490E080E00C9455049C
:1010C00090E080E00E94550481E090E00C9455048B
:1010D000CF9380E390E00E94550481E694E00E9463
:1010E000C603892BD1F381E694E00E94A403C82FA4
:1010F00080930E0381E694E00E94C603892BD1F30E
:1011000081E694E00E94A40320E03C2FA901482B33
:10111000CA01CF910895EF92FF920F931F93CF933F
:10112000DF9300D000D000D0CDB7DEB7DC01AB013B
:1011300018966D917C9119978D919C911197FC0156
:101140002081318161157105B9F0D9015096ED9179
:10115000FC91099521E0019709F020E0822F269665
:101160000FB6F894DEBF0FBECDBFDF91CF911F91B8
:101170000F91FF90EF900895F901E684F7842BEC2E
:1011800031E03A83298314960D911D912D913C9164
:1011900017970B831C832D833E83BE016F5F7F4FA8
:1011A000F701D7CFFC019485992369F08081918163
:1011B000DC01ED91FC910688F789E02D099591E01D
:1011C000811101C090E0892F0895DC011C961C92CA
:1011D0001C978D919C91009739F0DC01ED91FC9169
:1011E0000488F589E02D09940895FC0176876587C8
:1011F0000895DC01ED91FC9102A0F3A1E02D099589
:1012000091E089270895862F089581E08627089523
:1012100021E0FC018485843008F020E0822F0895CD
:1012200008958F929F92AF92BF92EF92FF920F9389
:101230001F93CF93DF93CDB7DEB7A1970FB6F89486
:10124000DEBF0FBECDBF7C01FA01CB0119A2223057
:1012500008F42AE08E010F5D1F4F822E912CB12CD5
:10126000A12CBF01A50194010E94C633F901CA0156
:101270006A3074F5605DD8016E938D01232B242BA9
:10128000252B79F790E080E0109789F0FD0101901F
:101290000020E9F73197AF014A1B5B0BD701ED91B5
:1012A000FC910280F381E02DB801C7010995A19658
:1012B0000FB6F894DEBF0FBECDBFDF91CF911F9167
:1012C0000F91FF90EF90BF90AF909F908F900895F7
:1012D000695CD1CFFC0101900020E9F73197AF01A3
:1012E000481B590BBC0180E495E00C9468030C94F6
:1012F0003A2E8F929F92AF92BF92CF92DF92EF924F
:10130000FF920F931F93CF93DF937C01EB016C014E
:1013100082E0C80ED11C4701E5E08E0E911C10E062
:1013200000E0F60141916F0150E070E060E02AE0DA
:10133000CE010E9411095C01E881F9810190F081E0
:10134000E02D6EE2CE0109958A0D9B1D080F191F35
:10135000C814D90431F7F701458150E070E060E02E
:101360002AE0CE010E941109800F911FDF91CF91D9
:101370001F910F91FF90EF90DF90CF90BF90AF90B3
:101380009F908F9008950F931F93CF938C01C62F3A
:101390000E9465056C2F6460C8010E9465056C2F72
:1013A0006B7FC8010E94650583EC90E00197F1F71F
:1013B000CF911F910F9108950F931F93CF93DF93B8
:1013C0008C01D62FC42F607F642B0E94C30980E15B
:1013D000D89FB00111246C2BC801DF91CF911F91D0
:1013E0000F910C94C309CF93DF93CDB7DEB7289745
:1013F0000FB6F894DEBF0FBECDBF98E0EDE2F1E08E
:10140000DE01119601900D929A95E1F790914805B1
:10141000961708F46FEF262F30E0220F331F41E0BC
:1014200050E04C0F5D1F240F351FF9016081680FDC
:10143000606840E080E495E028960FB6F894DEBF3F
:101440000FBECDBFDF91CF910C94DC09FB018081F1
:1014500091810E94672F892B81F081E090E00E94AA
:10146000550481E090E00E94550461E087E00E940D
:10147000F3098DEC91E00C946A0981E090E00E9400
:10148000550490E080E00E94550461E087E00E94EE
:10149000F30988ED91E0EFCFFB01808191810E94FB
:1014A000672F21E0009709F420E020933804892B6E
:1014B00051F00E94600861E087E00E94F30983EE2A
:1014C00091E00C946A090E94580861E087E00E944C
:1014D000F3098DEE91E0F5CFFB01808191810E94AF
:1014E000672F21E0009709F420E020933704892B2F
:1014F00061F061E085E00E94D50160E087E00E9434
:10150000F30987EF91E00C946A0960E085E00E949E
:10151000D50160E087E00E94F30980E092E0F3CF1C
:10152000FB01808191810E94672F892B61F061E02E
:1015300084E00E94D50160E087E00E94F30989E021
:1015400092E00C946A0960E084E00E94D50160E0BA
:1015500087E00E94F30982E192E0F3CF41E00E942C
:10156000DC0981E090E00895AF92BF92CF92DF92C4
:10157000EF92FF920F931F93CF93DF9300D000D091
:10158000CDB7DEB78C016B017A01809160048333A3
:10159000E9F45B016801C40ED51EC016D106A9F19D
:1015A0000E9470068FE00E947B06812F0E947B06BE
:1015B000802F0E947B060F5F1F4F80E00E947B06FA
:1015C000F50181935F010E946606E7CF843369F5D8
:1015D0000E94700619830A838F2D8F778B83EC828C
:1015E00064E070E0CE0101960E944C06A70170E015
:1015F00060E0C6010E94C935E114F10421F0B70191
:10160000C6010E944C060E946606C7010F900F900B
:101610000F900F90DF91CF911F910F91FF90EF905E
:10162000DF90CF90BF90AF9008950E9470060F3F5B
:10163000110509F030F419820A831B8263E070E01F
:10164000D1CF17FD0BC019820A8333E01695079599
:101650003A95E1F7007E08600B83F0CFC80126E0E1
:10166000969587952A95E1F7807E19830A8301155F
:10167000104C18F480618B83E1CF8861FCCFCF934D
:10168000DF931F92CDB7DEB72091C50330E0322F34
:101690002227260F371F90E0982F882741E050E03F
:1016A000BE016F5F7F4F820F931F0E94B40A898132
:1016B0000F90DF91CF910895CF93C82F462F61E00F
:1016C00070E00E948E0761E070E08C2F0E943F0B5B
:1016D0008111F9CFCF910895CF93C82F80E591E084
:1016E0000E94930168E070E08C2FCF910C945C0B0A
:1016F000CF93C82F80E591E00E94930160E170E0F4
:101700008C2FCF910C945C0BCF93DF93EC01888DE1
:10171000843020F40E94780B84E0888FDF91CF9191
:101720000895CF93C82F80E591E00E94930163E074
:1017300070E08C2FCF910C943F0BCF93DF93EC0193
:101740008C858430D0F40E94910B843189F08823F9
:1017500079F0883169F021E08C3159F4E881F98120
:101760000084F185E02DCE01099521E0892B09F453
:1017700020E0822FDF91CF91089580E0FBCFCF92C0
:10178000DF92EF92FF92CF93DF93EC018C85843050
:1017900068F40E946C0B0E9409036B017C018C852C
:1017A0000E94910B811109C084E08C87DF91CF9159
:1017B000FF90EF90DF90CF90089561E070E080E0BF
:1017C00090E00E94D6020E940903AB01BC014C19B3
:1017D0005D096E097F098D859E85B0E0A0E0481700
:1017E00059076A077B07D8F28C850E94780BDCCFFB
:1017F000CF93FC01C08D80E591E00E94930160E2EF
:1018000070E08C2F0E945C0B62E070E08C2F0E94D5
:101810003F0B84FD16C062E070E08C2F0E943F0BEE
:1018200083FF0AC048E162E070E08C2F0E948E07BF
:1018300080E090E0CF91089580E591E00E949301CF
:10184000E3CF40E162E070E08C2F0E948E0781E0E0
:10185000F0CFCF93DF931F92CDB7DEB741E050E0DA
:10186000BE016F5F7F4F90E080E00E94B40A8981E3
:101870000F90DF91CF910895CF93DF93C4E1D0E033
:101880000E94290C882361F061E070E080E090E024
:101890000E94D6022197A1F780E0DF91CF910895B1
:1018A00081E0FBCF1F93CF93DF931F92CDB7DEB7BD
:1018B000182F80E591E00E949301812F0E94450737
:1018C00027E0129FF0011124EC5BFB4F2281338152
:1018D000377041E050E0BE016F5F7F4F820F931F72
:1018E0000E94B40A89810F90DF91CF911F910895D2
:1018F000FC01808D843040F4218D328D232B21F02A
:101900000E94520C90E008958FEF9FEF0895CF93BF
:10191000DF93FC012485243028F08FEF9FEFDF91C7
:10192000CF910895EC010190F081E02D0084F185C4
:10193000E02D0995892B89F38C850E94520C90E04B
:10194000EECFDA01E091C503F0E0FE2FEE27E60FBF
:10195000F71F90E0982F8827A901BD018E0F9F1FC8
:101960000C94B40A8F929F92AF92BF92CF92DF9263
:10197000EF92FF921F93CF93DF93CDB7DEB72C97F3
:101980000FB6F894DEBF0FBECDBF2091600414E007
:10199000222339F16B017C0180E591E00E949301E3
:1019A0005E0127E0A20EB11C450110E063E070E08B
:1019B000812F0E943F0BF40181934F01882349F14D
:1019C0001F5F143099F710E0F50181915F018D31AF
:1019D000D9F08831C9F08A518230B0F01F5F1430DD
:1019E00099F7812F2C960FB6F894DEBF0FBECDBFAE
:1019F000DF91CF911F91FF90EF90DF90CF90BF903C
:101A0000AF909F908F90089560E170E0812F0E94C9
:101A10005C0BA12EB12C83EE93E00197F1F742E825
:101A200070E060E0812F0E948E074FEF62E070E06F
:101A3000812F0E948E07B601C114D10491F48091C8
:101A400021019091220101968115F0EC9F0708F485
:101A50005CC09093220180932101609121017091DB
:101A60002201812F0E94790786E0E5E3F1E0DE01A3
:101A7000119601900D928A95E1F7F70183818F7796
:101A80008C8384818D8385818E83A7014E5F5F4F18
:101A900024E030E06CE070E0812F0E945307B60133
:101AA000812F0E94640726E030E0AE014F5F5F4F58
:101AB00066E070E0812F0E94530761E070E0812FA3
:101AC0000E945C0B27E02A9DC0012B9D900D1124E4
:101AD0009C012C5B3B4F7901F9011182108222E0BD
:101AE00030E0AE01455F5F4F68E270E0812F0E94F9
:101AF000A10C8B859C85982789279827F7019383CC
:101B000082831682158214826CCF80E090ECA1CF84
:101B1000CF92DF92EF92FF920F931F93CF93DF93B9
:101B200000D000D000D0CDB7DEB78C016B017A01B8
:101B3000FC01808D843010F40E94780B8BEC91E0D6
:101B40009A838983F60182819381A481B5818B83F5
:101B50009C83AD83BE83B701CE0101960E94B20C77
:101B6000F801808F8430A0F4F586E486128E118E01
:101B700081E026960FB6F894DEBF0FBECDBFDF9191
:101B8000CF911F910F91FF90EF90DF90CF9008952C
:101B900080E0EFCFAF92BF92CF92DF92EF92FF92B1
:101BA0000F931F93CF93DF9300D000D000D0CDB719
:101BB000DEB7082F6B0180E591E00E9493019E0142
:101BC0002F5F3F4F7901590110E063E070E0812FF2
:101BD0000E943F0BF50181935F01882341F11F5F54
:101BE000143099F710E0F70181917F018D31D1F028
:101BF0008831C1F08A518230A8F01F5F143099F704
:101C0000812F26960FB6F894DEBF0FBECDBFDF91B1
:101C1000CF911F910F91FF90EF90DF90CF90BF90E9
:101C2000AF90089560E170E0812F0E945C0BE12E7F
:101C3000F12C83EE93E00197F1F7402F70E060E024
:101C4000812F0E948E074FEF62E070E0812F0E948B
:101C50008E07B601CD2889F480912101909122014F
:101C600001968115F0EC9F0798F1909322018093E3
:101C700021016091210170912201812F0E94790739
:101C800061E070E0812F0E945C0B27E02E9DC00177
:101C90002F9D900D11249C012C5B3B4F7901F90184
:101CA0001182108222E030E0AE014B5F5F4F68E2AC
:101CB00070E0812F0E94A10C8D819E819827892739
:101CC0009827F7019383828316821582148298CF16
:101CD00080E090ECCACFCF92DF92EF92FF921F93F9
:101CE000CF93DF93EC017B016A018C85843048F44B
:101CF0000E94910B882319F08C850E946C0B84E064
:101D00008C87F70182819381A481B5810097A10519
:101D1000B10551F490E080E0DF91CF911F91FF90E9
:101D2000EF90DF90CF9008958F3F9F4FAF4FBF4F01
:101D300089F380916004811103C084E08C87EACF2D
:101D400070E060E081E20E94CA0D182F8C87843019
:101D500008F780E591E00E949301A7014E5F5F4F75
:101D600024E030E06CE070E0812F0E945307B60160
:101D7000812F0E94640764E070E0812F0E945C0B59
:101D80000E9409036B017C018C850E94910B8731B5
:101D900009F18C31F9F0882309F4BCCF0E940903C2
:101DA000AB01BC014C195D096E097F098D859E85CB
:101DB000B0E0A0E084179507A607B70738F061E008
:101DC00070E080E090E00E94D602DECF8C850E9419
:101DD000780BB3CF81E090E09FCF0F931F93CF9309
:101DE000DF93EC018B01888D843010F40E94780B16
:101DF00080916004811107C094E0988FDF91CF91AA
:101E00001F910F910895B80182E00E94CA0D888F3A
:101E1000843030F41D870C871A8E198E81E0EECF46
:101E200080E0ECCF7F928F929F92AF92BF92CF9241
:101E3000DF92EF92FF920F931F93CF93DF9300D027
:101E4000CDB7DEB7782E8B014A01590122E030E090
:101E5000AE014F5F5F4F64E270E00E94A10CE98029
:101E6000FA80FE24EF24FE24E00EF11E9701377065
:101E700040916004072D10E0433309F042C0085F31
:101E80001F4F102F0027110F110F110FC901800FC5
:101E9000911F4733C9F1A9014A0D5B1D41305840DC
:101EA00098F160E078E06B01C21AD30AA601B40190
:101EB0000E948206A5014C195D09B4016C0D7D1DBF
:101EC000C8010E948206EA0CFB1CF982EA8222E029
:101ED00030E0AE014F5F5F4F64E270E0872D0E94FB
:101EE00053070F900F90DF91CF911F910F91FF90AB
:101EF000EF90DF90CF90BF90AF909F908F907F90AA
:101F00000895005F1F4FBDCFA501B401DACFEF9256
:101F1000FF921F93CF93DF9300D0CDB7DEB7182F7A
:101F200022E030E0AE014F5F5F4F60E270E00E9460
:101F3000A10CE980FA80FE24EF24FE2422E030E0A8
:101F4000AE014F5F5F4F60E270E0812F0E94A10CF5
:101F500089819A81982789279827E816F90689F4B4
:101F600087E0189FF0011124EC5BFB4FF582E482BF
:101F7000C7010F900F90DF91CF911F91FF90EF90CD
:101F800008957C01DBCF1F93CF93DF93182F80E55B
:101F900091E00E949301812F0E94870FEC0163E082
:101FA00070E0812F0E943F0B873121F08C3111F0BE
:101FB000D0E0C0E0CE01DF91CF911F910895CF9383
:101FC000DF93EC018C85843060F40E94910B8731A3
:101FD00011F08C3131F48C850E94C30F811598402B
:101FE00088F3DF91CF910895FC018485843010F44B
:101FF0000C94C30F90E080E008959F92AF92BF923F
:10200000CF92DF92EF92FF920F931F93CF93DF93C4
:102010008C015B01942EE52EFC01C688D788F08CDC
:1020200080E591E00E9493018F2D0E94870FC92DBA
:10203000DE2D8C179D0708F4EC019E01A501B60169
:102040008F2D0E94120FF801868997898C0F9D1F92
:10205000978B868BCE01DF91CF911F910F91FF90CF
:10206000EF90DF90CF90BF90AF909F9008958F92A8
:102070009F92AF92BF92CF92DF92EF92FF920F9317
:102080001F93CF936C015B018A01FC01C485C430AE
:10209000F0F57A014130584018F0E12C88E0F82E34
:1020A00080E591E00E9493018C2F0E94870F4C01E4
:1020B00063E070E08C2F0E943F0B873111F08C3170
:1020C00049F58E149F0460F380E591E00E9493012E
:1020D0009701A50170E060E08C2F0E94120F60E272
:1020E00070E08C2F0E945C0B62E070E08C2F0E94ED
:1020F0003F0B84FD17C063E070E08C2F0E943F0B04
:1021000081110BC081E090E0F6019383828310E09F
:1021100000E010C0F12CE12CD7CF80E591E00E94C7
:102120009301E2CF40E162E070E08C2F0E948E07C5
:10213000EF2841F3C801CF911F910F91FF90EF90CD
:10214000DF90CF90BF90AF909F908F900895FF92B7
:102150000F931F93CF93DF9300D0CDB7DEB7F82E48
:1021600022E030E0AE014F5F5F4F66E270E00E9418
:10217000A10C09811A8110270127102722E030E0E5
:10218000AE014F5F5F4F66E270E08F2D0E94A10CA1
:1021900089819A819827892798270817190749F470
:1021A000C8010F900F90DF91CF911F910F91FF9079
:1021B00008958C01E3CF1F93CF93DF93182F87E00F
:1021C000189FE0011124CC5BDB4F88819981009737
:1021D00061F480E591E00E949301812F0E94A71095
:1021E0002E81821B910999838883DF91CF911F9162
:1021F0000895FC018485843010F40C94DB1090E089
:1022000080E008954F925F927F928F929F92AF925B
:10221000BF92CF92DF92EF92FF920F931F93CF93D3
:10222000DF9300D0CDB7DEB7782E6B014A01A82E20
:10223000B12C27E0829FC0011124FC01EC5BFB4F15
:102240007F010081118180E591E00E9493010815D2
:10225000190554F4872D0E94A710F70126818C01DF
:10226000021B1109118300830115110529F563E093
:1022700070E0872D0E943F0B843159F0882349F08C
:1022800001E010E08C3111F410E000E011950195AF
:102290001109C8010F900F90DF91CF911F910F91FD
:1022A000FF90EF90DF90CF90BF90AF909F908F9076
:1022B0007F905F904F900895801691060CF48401F2
:1022C00087E08A9DF0018B9DF00D1124EC5BFB4FA4
:1022D000E280F380C114D10451F12701F7E05F22BD
:1022E000872D0E944507840D951D2091600427339A
:1022F00009F453C09801240D351D2130384008F4ED
:102300004CC020E038E0490184189508A401B601CA
:102310000E94B40A2601480C591C6801C818D90843
:10232000872D0E944507A601B2010E94B40AE00E63
:10233000F11E87E08A9DF0018B9DF00D1124EC5B6E
:10234000FB4FF382E28220813181201B310B3183EC
:1023500020838681800F912F911D8A3F910510F473
:10236000232BF1F487E08A9DF0018B9DF00D112461
:10237000EC5BFB4F1682F982EA8222E030E0AE018C
:102380004F5F5F4F68E270E0872D0E94530760E463
:1023900070E0872D0E945C0B7CCFA801B601C5CFF1
:1023A000868377CFCF93DF93FC01218D328D21156A
:1023B000310529F48FEF9FEFDF91CF910895EC0164
:1023C000808D4217530708F0A9010E9402111816C8
:1023D000190684F7298D3A8D281B390B3A8F298FDE
:1023E000EBCF0F931F93CF93DF931F92CDB7DEB741
:1023F000FC01218D328D232B41F48FEF9FEF0F9045
:10240000DF91CF911F910F9108958C0141E050E031
:10241000BE016F5F7F4FFC01808D0E940211181674
:1024200019065CF7F801818D928D0197928F818F4B
:10243000898190E0E4CFCF93DF931F92CDB7DEB7D1
:1024400041E050E0BE016F5F7F4FFC0184850E9438
:1024500002111816190634F4898190E00F90DF916B
:10246000CF9108958FEF9FEFF9CFFC0184858430E1
:1024700010F40C94021190E080E008950F931F93E4
:10248000CF93DF9300D0CDB7DEB7FC012485243095
:10249000E0F48C0180E591E00E94930122E030E0BD
:1024A000AE014F5F5F4F60E170E0F80184850E94EC
:1024B000A10C89819A819827892798270F900F90DE
:1024C000DF91CF911F910F91089590E080E0F6CFBA
:1024D0000F931F93CF93DF9300D0CDB7DEB7FC01EE
:1024E00024852430E0F48C0180E591E00E94930182
:1024F00022E030E0AE014F5F5F4F64E070E0F80132
:1025000084850E94A10C89819A8198278927982720
:102510000F900F90DF91CF911F910F91089590E050
:1025200080E0F6CFDC018BEC91E08D939D9384E00D
:10253000FB0101900D928A95E1F70895EF92FF92C9
:102540000F931F93CF93DF9300D000D0CDB7DEB7AA
:102550008C017B01FB0184858430A8F08BEC91E039
:10256000F801918380831282138214821582C8013C
:102570000F900F900F900F90DF91CF911F910F91BF
:10258000FF90EF90089580E591E00E94930124E090
:1025900030E0AE014F5F5F4F6CE070E0F701848583
:1025A0000E94A10CBE016F5F7F4FC8010E94921272
:1025B000DECF0F931F93CF93DF93CDB7DEB728976E
:1025C0000FB6F894DEBF0FBECDBF8C01D80159966F
:1025D0004D915C915A974115510551F0ED91FC9147
:1025E000048CF58DE02D70E060E0C8010995EECF18
:1025F000F801808D0E94DB10892BB1F148E050E09A
:10260000BE016F5F7F4FD80158968C910E940211D6
:1026100018161906F4F4D801509684E0FE0131969C
:1026200001900D928A95E1F78D8190E0982F88278F
:102630002E81820F911DF801958B848B8F81282F1D
:1026400030E0322F22278885820F932F911D928FA1
:10265000818F28960FB6F894DEBF0FBECDBFDF91F5
:10266000CF911F910F91089590E080E0F2CF4F92AB
:102670005F926F927F928F929F92AF92BF92CF9212
:10268000DF92EF92FF920F931F93CF93DF93CDB71B
:10269000DEB763970FB6F894DEBF0FBECDBF7C01E7
:1026A0006B013A01FB0120E090E080E06AE03191AB
:1026B000332309F461C040ED430F4A3008F04DC0A8
:1026C000689FA001699F500D1124CA01C097830F14
:1026D000911D37FD9A958F3F910549F340F3F7011E
:1026E00042815381648175818091360590913705CF
:1026F000A0913805B0913905481759076A077B073B
:1027000009F40DC28701085F1F4F0E9409036F7013
:1027100077277C5FC8010E94ED0E813009F004C26A
:102720008BEC91E09A838983F70182819381A48164
:10273000B5818B839C83AD83BE8345E350E0BE01AE
:102740006F5F7F4FC8010E94E307892BA9F5D12C49
:10275000C12CC8010E94840B17C03E3209F0BFCFC4
:10276000233009F4BCCFD301A20FB11D12968C9374
:102770002F5F90E080E09BCF233009F0B0CFF301D2
:102780008583CC24C394D12CC60163960FB6F894EC
:10279000DEBF0FBECDBFDF91CF911F910F91FF9094
:1027A000EF90DF90CF90BF90AF909F908F907F90F1
:1027B0006F905F904F9008950E940903F70177830F
:1027C000668342E050E0B7016A5F7F4FC8010E9414
:1027D000FD0F81E090E09A83898342E050E0BE01E2
:1027E0006F5F7F4FC8010E94FD0F80E091E09A83E8
:1027F000898342E050E0BE016F5F7F4FC8010E94B5
:10280000FD0F1A82198242E050E0BE016F5F7F4FD8
:10281000C8010E94FD0F42E050E0BE016F5F7F4F94
:10282000C8010E94FD0F42E050E0BE016F5F7F4F84
:10283000C8010E94FD0F5601F6018081882301F135
:102840006501F60181912F01882311F08E32B1F4D8
:1028500046018A189B081814190474F48D8641E007
:1028600050E0BE01635F7F4FC8010E94FD0FA401CD
:10287000B501C8010E94FD0F5201DECF6201E1CF18
:102880001D8641E050E0BE01635F7F4FC8010E949A
:10289000FD0FC12CDD24D394DA82C98242E050E0DE
:1028A000BE016F5F7F4FC8010E94FD0FDA82C982AF
:1028B00042E050E0BE016F5F7F4FC8010E94FD0FF4
:1028C000C8010E94F80B892B09F441CFF3E0AF2E29
:1028D000B12C230122E0420E511CD4C0F7014281E9
:1028E000538164817581808D918DA28DB38D481740
:1028F00059076A077B0709F008C1848D958DC59734
:1029000009F003C181A192A15DEFC52EDD24DA9407
:102910000C970CF4ADC04CE050E0BE016F5F7F4FF0
:10292000C8010E94D2118B819C8198278927982702
:102930009A8B898BF7014681578129813A81421709
:10294000530709F0E7C097FFE5C08F7092703BEF27
:10295000C32EDD24DA94892B09F08AC06F80788435
:102960007624672476242AEFC22EDD24DA946114BB
:10297000710409F47DC0D12CC12C8D819E819827D2
:1029800089279827C816D906F8F441E050E0BE011F
:10299000635F7F4FC8010E94D2114D85442331F0FF
:1029A00050E070E060E0C8010E94D2118D85811175
:1029B000ECCF44E050E070E060E0C8010E94D2112A
:1029C000FFEFCF1ADF0AD9CF912C812C41E050E0E4
:1029D000BE016D5E7F4FC8010E94D2114B89842FCA
:1029E000807C09F06CC0442331F050E070E060E07E
:1029F000C8010E94D2118B898111E8CF42E050E0DA
:102A0000BE01615F7F4FC8010E94D21142E050E0D9
:102A1000BE01635F7F4FC8010E94D21144E050E0C5
:102A200070E060E0C8010E94D21142E050E0BE01B7
:102A30006F5E7F4FC8010E94D2118F8598894989A6
:102A40005A898115914009F043C0CD84DE84DC248D
:102A5000CD24DC2481E0C816D104D1F541155440C1
:102A600009F04AC044E050E0B201C8010E94D2110E
:102A700021E0A21AB10809F46CCEFFEFCF16DF06F1
:102A800009F067CE0E9409033B014C01C8010E9476
:102A9000D912181619060CF421CF0E9409036619E1
:102AA000770988099909693873418105910548F5C5
:102AB00062E370E080E090E00E94D602E7CF41E060
:102AC00050E070E060E0C8010E94D2111B8A93CFF1
:102AD00054274527542770E060E0C8010E94D211B6
:102AE000FFEF8F1A9F0A6814790409F06FCF96EFF1
:102AF000C92EDD24DA94BCCFE7EFCE2EDD24DA94A4
:102B0000B7CFCC24CA94DC2CB3CF6EEFC62EDD2415
:102B1000DA94AECF4CEFC42EDD24DA94A9CF8EEF39
:102B2000C82EDD24DA9430CED12CC12C2DCECF92FC
:102B3000DF92EF92FF920F931F93CF93DF93CDB766
:102B4000DEB7AF970FB6F894DEBF0FBECDBF7C01E6
:102B50006A010BEC11E01A8309831C861B8688EE40
:102B600093E0A0E0B0E08D879E87AF87B88B8FE3BE
:102B700091E09A878987188F0F8B198E1A8E1B8E7A
:102B80001C8E84E089A31BA70AA71CA61DA61EA64F
:102B90001FA680912A0590912B05A0912C05B0913C
:102BA0002D058EA39FA3A8A7B9A78B839C83AD8374
:102BB000BE8318861F82AE01465D5F4FCE0101962F
:102BC0000E94371381309105B1F4D701ED91FC914A
:102BD0000488F589E02D1DA30CA38CA59DA5AEA5A9
:102BE000BFA58EA39FA3A8A7B9A7A601BE016C5D30
:102BF0007F4FC7010995AF960FB6F894DEBF0FBEA1
:102C0000CDBFDF91CF911F910F91FF90EF90DF909B
:102C1000CF900895CF92DF92EF92FF920F931F9380
:102C2000CF93DF93CDB7DEB7AF970FB6F894DEBF83
:102C30000FBECDBF8C016B017A018BEC91E09A83C2
:102C400089831B821C821D821E821C861B8648EE85
:102C500053E060E070E04D875E876F87788B2FE3ED
:102C600031E03A872987988F8F8B198E1A8E1B8EA9
:102C70001C8E24E029A39BA78AA71CA61DA61EA61E
:102C80001FA6D8011C968C91843060F40E94910B91
:102C9000882321F0F80184850E946C0B84E0D80120
:102CA0001C968C9380912A0590912B05A0912C0560
:102CB000B0912D058EA39FA3A8A7B9A78B839C8352
:102CC000AD83BE8318861F82AE01465D5F4FB6019D
:102CD000CE0101960E9437130097C1F0D801ED9103
:102CE000FC910684F785E02D8BEC91E09DA38CA3ED
:102CF0008CA59DA5AEA5BFA58EA39FA3A8A7B9A788
:102D0000A701BE016C5D7F4FC8010995AF960FB654
:102D1000F894DEBF0FBECDBFDF91CF911F910F9111
:102D2000FF90EF90DF90CF9008957F928F929F92C7
:102D3000AF92BF92CF92DF92EF92FF920F931F93C9
:102D4000CF93DF93CDB7DEB7A6970FB6F894DEBF6B
:102D50000FBECDBF8C01762E942E852E20E2A22EA2
:102D6000CE0101967C01DC01EA2D1D92EA95E9F77E
:102D70006801F3E4CF0ED11C8BEC91E09AA389A3F8
:102D80008FEF8BA38CA38DA38EA343E450E0BE01F1
:102D90006F5D7F4FC6010E94E307019609F4BFC033
:102DA00081E089838A8386E0B82EBB821C82D801A9
:102DB00014966D917D918D919C9117970E947E3410
:102DC0006D837E838F83988789869A8680E890E0DA
:102DD0009C878B874CE150E0B701C6010E94FD0F34
:102DE000FE0137968AE1DF011D928A95E9F74801D5
:102DF000B8E08B0E911CF401D70101900D92BA94AA
:102E0000E1F740E150E0B701C6010E94FD0FF70174
:102E10001192AA94E9F796E0A92EB12C40E250E075
:102E2000B701C6010E94FD0FF1E0AF1AB108B1F77A
:102E300083E6898392E89A8393E59B838C8385E379
:102E40008D8381E08E837F829DE3988797E09987C9
:102E50008A8786E0F401DE011B9601900D928A9527
:102E6000E1F78CE0898B8A8B6BE172E0CE014396AF
:102E70000E94D935D8011B966C91CE0149960E94CB
:102E80009601F8016485CE014B960E949601D80107
:102E90001D966C91CE014D960E9496014EE150E038
:102EA000B701C6010E94FD0FB3E07B121EC082E392
:102EB000898384E08A83F80196859B8397859C8328
:102EC00090899D8391899E8396E39F838887828DD5
:102ED0008987838D8A87848D8B87858D8C874CE04D
:102EE00050E0B701C6010E94FD0F87E3898386E0A9
:102EF0008A8391E09B8393E09C838D838FE08E8314
:102F00008AE38F838BE388878FEF898749E050E0DE
:102F1000B701C6010E94FD0FC6010E94F80BA696DC
:102F20000FB6F894DEBF0FBECDBFDF91CF911F91DA
:102F30000F91FF90EF90DF90CF90BF90AF909F9058
:102F40008F907F9008950F931F93CF93DF93EC01A1
:102F5000FB0101900020E9F78F01061B170B8A8106
:102F60009B81A801480F591F2C813D8124173507EB
:102F700068F028813981A801820F931F0E94C03513
:102F80004A815B81400F511F5B834A83DF91CF9160
:102F90001F910F9108956115710599F4DC01ED9170
:102FA000FC91119712962D913C911397A9014F5FB7
:102FB0005F4F13965C934E931297E20FF31F1082AC
:102FC00008950C94A3170F931F93CF93DF93EC01F5
:102FD00088819981009759F02A813B81261737070C
:102FE00030F081E0DF91CF911F910F9108958B0117
:102FF0006F5F7F4F0E94F634009759F09983888362
:103000001B830A832C813D81232B59F7FC011082FD
:10301000E8CF80E0E7CF85ED8093BC0080919B03F3
:1030200090919C03A0919D03B0919E030796A11DD2
:10303000B11D23E0B695A795979587952A95D1F769
:103040002091BC0024FD03C0109299030895409183
:103050009B0350919C0360919D0370919E03452BAF
:10306000462B472B69F30097A105B10541F02AE2F1
:103070002A95F1F700C00197A109B109E1CF80912C
:103080009A030C94BF043F924F925F926F927F928B
:103090008F929F92AF92BF92CF92DF92EF92FF9268
:1030A0000F931F93CF93DF93CDB7DEB7EA970FB699
:1030B000F894DEBF0FBECDBF7C012A013B01690140
:1030C0000E9409034B015C0187010D5B1F4FC80182
:1030D0000E94D912181619069CF00E94090368195B
:1030E00079098A099B09461657066806790608F485
:1030F00066C162E370E080E090E00E94D602E7CF14
:1031000042E250E0BE016F5F7F4FC8010E94D211C2
:1031100089818230D1F0312C832DEA960FB6F89454
:10312000DEBF0FBECDBFDF91CF911F910F91FF90FA
:10313000EF90DF90CF90BF90AF909F908F907F9057
:103140006F905F904F903F900895F8018489958922
:103150008334910501F76D817E818F8198850E946E
:103160007E344B015C01F60180829182A282B3829F
:1031700046E050E0B701685F7F4FCE014D960E9458
:10318000B335892B41F6F70180819181A281B3810A
:1031900088169906AA06BB0608F4BDCF84819581DE
:1031A000A681B78188159905AA05BB0508F4B3CF98
:1031B00089899A89AB89BC8986879787A08BB18BCF
:1031C0004EEC50E070E060E0C8010E94D211312C5A
:1031D000C701829698AB8FA7F701B696FAABE9AB19
:1031E00008969CAB8BAB67019AE1C90ED11CBD96CA
:1031F000FEABEDABC701429698AF8FABFD97FAAF30
:10320000E9AF4701FEE18F0E911CF801818D928D8F
:10321000181619060CF080CFC8010E94F1118333F3
:10322000910509F4B2C014F58130910509F464C028
:1032300044F4892B51F3C8010E94F111AC015527C8
:1032400075C08330910509F462C00697A1F7C801E3
:103250000E94F111B82E44E050E0B401C8010E9470
:10326000D211EB2DE450FF0BAF0160C08A33910502
:1032700009F45FC084F585339105B1F1C697D9F69D
:10328000C8010E94F1115C01B601CE0189960E942D
:1032900092128BA59CA5ADA5BEA5892B8A2B8B2B45
:1032A000B1F0EDA9FEA94080518062807380B60123
:1032B000CE0183960E9492128DA19EA1AFA1B8A5C6
:1032C000A501481659066A067B0609F0B8CF44E006
:1032D00050E0B60118C08B33910509F440C08F3F10
:1032E000910509F492CFA7CFC8010E94F111C8013E
:1032F0000E94F111382E89CFC8010E94F11144E0DB
:1033000050E06FA978ADC8010E94D2117ECFC801EC
:103310000E94F111B82E44E050E069AD7AADC801C9
:103320000E94D2118B2D8450990BAC0170E060E0AB
:10333000EACFC8010E94F11144E050E069A97AA9DE
:10334000C8010E94D211F70166A177A180A591A5BD
:103350000E947E3466A377A380A791A756CFC801A9
:103360000E94F11144E050E06BA97CA9C8010E94C1
:10337000D211F70162A573A584A595A50E947E349C
:1033800062A773A784A795A740CFC8010E94F11137
:1033900044E050E06FA578A9C8010E94D211F7015E
:1033A00062A173A184A195A10E947E3462A373A33C
:1033B00084A395A366A777A780AB91AB26CF3324D0
:1033C0003A94AACE0F931F93CF93DF93CDB7DEB776
:1033D00028970FB6F894DEBF0FBECDBF8C01CB018E
:1033E0004AE0BE016F5F7F4F0E94B52FBE016F5F45
:1033F0007F4FC8010E94A31728960FB6F894DEBF2E
:103400000FBECDBFDF91CF911F910F9108953F92D5
:103410004F925F926F927F928F929F92AF92BF92E4
:10342000CF92DF92EF92FF920F931F93CF93DF9390
:10343000CDB7DEB7A1970FB6F894DEBF0FBECDBFF4
:103440005C010DB71EB719A308A360E070E0CB01C3
:103450000E94D602D50191968D919C919297912CC4
:10346000029709F498C090968C9190978F5F9096F0
:103470008C9390975E962D913C91232B19F0992473
:10348000939482C08330D8F7F501828593850E949A
:10349000D208882309F440C38E010F5F1F4F380103
:1034A000D5011A96ED91FC9180819181DC01ED911D
:1034B000FC910084F185E02D0995181619060CF091
:1034C0002BC3D5011A96ED91FC9145E050E0BE0169
:1034D000695E7F4F808191810E941803009701F3FC
:1034E000059709F04AC0888D998D982789279827D4
:1034F000998F888FEA8CFB8CFE24EF24FE24FB8EB0
:10350000EA8E892BD1F18F8981116AC00E9409034B
:10351000F501608B718B828B938B21A132A14A8D37
:103520005B8D232B09F057C0288D398D2130310553
:1035300009F051C049305105E1F0483C510519F0FE
:1035400044305105D1F4D50158966D937D938D93F8
:103550009C935B97E1E0F0E09296FC93EE93919759
:10356000C5010E941E2460E070E0CB010E94D602DB
:1035700097CF83E090E092A381A3D5011A968D9115
:103580009C910E94E508912CD50190968C91909782
:10359000815090968C93892DE8A1F9A10FB6F894EB
:1035A000FEBF0FBEEDBFA1960FB6F894DEBF0FBEF3
:1035B000CDBFDF91CF911F910F91FF90EF90DF90E2
:1035C000CF90BF90AF909F908F907F906F905F90C3
:1035D0004F903F9008954530510509F061CFCDCF10
:1035E000F50182859385F1E0EF16FF0640F0D501E5
:1035F00092961C921E9291970E94E50851CF8DB62B
:103600009EB697012F5F3F4FEDB7FEB7E21BF30B5E
:103610000FB6F894FEBF0FBEEDBF0DB71EB70F5F1C
:103620001F4FA701B801DC018D919C910E941803E6
:103630008E159F0509F05FC0EA8DFB8DE00FF11F2D
:1036400010820E940903F501608B718B828B938B32
:103650008F89843109F4ABC0E8F48F3009F4A7C036
:10366000813109F43CC2863009F04EC2488D598D33
:10367000D12CC12CF12CE12C08EC10E030E020E042
:1036800060E0C5010E947F1E0FB6F8949EBE0FBE7B
:103690008DBE06CF8932C9F08733B1F38D3109F081
:1036A00033C2D50181A192A1892B01F7E1E0F0E0BD
:1036B0009296FC93EE939197C5010E941E2460E0C0
:1036C00070E0CB010E94D602D1CF86859785892BE9
:1036D00039F480E490E00E949E2DF501978786875B
:1036E000EA8CFB8CE00EF11E1A830983FC82EB82CC
:1036F0000E151F0530F00FB6F8949EBE0FBE8DBE9E
:103700003CCF40E450E0B801D5011E968D919C91CC
:103710000E94E035D5011E96ED91FC9117AEC301D4
:103720000E94FC23FC018081918100E510E08E1550
:103730009F0560F489819A810097A9F12B813C81D2
:103740008217930780F50E94852F8B01D5011A9669
:103750008D919C910E94E508D5011A96ED91FC91FE
:103760001B971E968D919C911F9791878087138739
:10377000028792961C921E9291970E940903DC0187
:10378000CB0188589341A109B109F501848B958B30
:10379000A68BB78B808B918BA28BB38B808F918FF5
:1037A000A28FB38F71CF60E070E0CB01CECF888D58
:1037B000998DD5015F969C938E935E974A8C5B8C16
:1037C0006801C40CD51C1D8F0C8FDF8ECE8E0C159E
:1037D0001D0508F013C1F801E080F180CE014C9680
:1037E0000E94FC23DC018D919C918C159D0508F0B5
:1037F00005C18C8D9D8DFC012081213459F40196E9
:103800000E94672F4EE0342E380E069744F0332482
:103810003A9405C0CE014C960E940F24382EF6E74C
:10382000EF16F2E7FF0609F406C138F531E6E316B4
:1038300032E7F30609F4E6C044E6E41642E7F4068C
:1038400009F478C050E7E5165DE6F50609F039C1E0
:103850008C8D9D8D8C159D0508F0D0C0FC012081BC
:103860002134A9F501960E94672F3EE0F32EF80E51
:10387000069794F1FF24FA942FC084E6E81687E7B0
:10388000F80609F4A2C096E7E91697E7F90609F4E5
:10389000EAC0A1E6EA16A7E7FA0609F012C1CE01CE
:1038A0004C960E94FC23DC018D919C918C159D050A
:1038B00008F0A4C061E0832D0E940302CE014C9663
:1038C0000E940F24BC01832D0E943F0297C0CE01AD
:1038D0004C960E940F24F82ECE014C960E94FC2399
:1038E0000C8D1D8D62E272E0C8010E94D03560E04F
:1038F000892B79F065E272E0C8010E94D035892BEE
:1039000039F069E272E0C8010E94D035892B49F490
:1039100061E08F2D0E940302CE014C960E94FC2391
:1039200097CF6DE272E0C8010E94D035892BA1F7D4
:1039300062E0EFCF7A8A698A1C8A1B8A00E110E074
:103940001E8B0D8B60E372E0CE0141960E94A3179F
:10395000032D10E0B801CE0141960E94E219F80152
:10396000E85CFD4F8491F801EC5DFD4FF490005F41
:103970001D4FF801049160E070E0002389F081118F
:103980000E94AC01E02FF0E0EE0FFF1FEA5FFD4F59
:10399000A591B491EC91FE2261E070E009F460E041
:1039A000CE0141960E94E2190B891C890150110930
:1039B00029893A89D12CC12CF12CE12C50E040E02E
:1039C00064E1C5010E947F1E19C0CE014C960E9481
:1039D000FC23DC018D919C918C159D0578F461E0B0
:1039E000832D0E940302CE014C960E940F2461E0B9
:1039F000892B09F460E0832D0E94D501F501178E13
:103A0000168E42CE7A8A698A1C8A1B8AE0E1F0E02F
:103A1000FE8BED8B63E372E0CE0141960E94A3170B
:103A2000632D70E0CE0141960E94E219832D0E9421
:103A30009C02BC01B5CFE32DF0E0FA83E983BFE13E
:103A4000B315E0F2EE0FFF1FE45BFD4F25913491BB
:103A50002115310599F2E1E022393E0779F2C301DF
:103A6000F9010995CBCFCE014C960E94FC238C8D99
:103A70009D8D9C01201B310B421A530A9A83898326
:103A80005C824B825E824D82E32DF0E0FA8BE98B03
:103A90000FE1031508F4B2CFEE0FFF1FE457FD4FFF
:103AA000259134912115310509F4A8CF11E0213970
:103AB000310709F4A3CFB301CE014196F90109956D
:103AC0009DCFD5015E964D915C91D12CC12CF12CEE
:103AD000E12C02E010E030E020E060E072CF8A8D5F
:103AE0009B8D800F911F1A8309839C838B830817FA
:103AF000190708F0C9CDC3010E94FC23D5015F96C8
:103B00001C921E925E97C0CDF50112A211A2828571
:103B100093850E94E508B8CD0E9409032B013C0162
:103B2000F501828593850E94D208D50191962D9149
:103B30003C912130310509F05EC0F501811109C0C9
:103B4000408E518E628E738E12A211A28285938551
:103B500018CD80899189A289B38993018201081BBC
:103B6000190B2A0B3B0BD901C801893116EF9107BC
:103B7000A105B10548F7893C9F4AA105B10590F41C
:103B800084899589A689B78993018201081B190B3D
:103B90002A0B3B0BD901C801893C9F4AA105B105FD
:103BA00008F46DCCF501808D918DA28DB38D9301BC
:103BB0008201081B190B2A0B3B0BD901C801813765
:103BC0009741A105B10508F45ACCD12CC12CF12C98
:103BD000E12C10E000E030E020E050E040E066E062
:103BE000C5010E947F1ED50158964D925D926D923F
:103BF0007C925B9744CC232B09F041CCF501408D9E
:103C0000518D628D738D93018201041B150B260B60
:103C1000370BB901A801882381F04137574161056D
:103C2000710508F42CCC828593850E94E508D501A6
:103C300092961C921E929197A6CC493853416105E9
:103C4000710508F41CCC828593850E94E508D50196
:103C50001A960D911C91F80162857385C8010E9426
:103C60008B08D8011C968C931C9781110DC01A9655
:103C70008D919C918035910599F460E97FE1C801AF
:103C80000E948B08F8018487F8019484911014C075
:103C9000D50158964D925D926D927C925B9774CC53
:103CA00080399F4189F760E570E0C8010E948B0868
:103CB000D8011C968C93E8CF81E090E0F501958FB8
:103CC000848F24853585F90101900020E9F731972B
:103CD0008F01021B130BD12CC12CF12CE12C41E0E4
:103CE00050E06DE1C5010E947F1EF5018489958930
:103CF000A689B789808F918FA28FB38F45CC2F92E1
:103D00003F924F925F926F927F928F929F92AF926B
:103D1000BF92CF92DF92EF92FF920F931F93CF93B8
:103D2000DF93CDB7DEB7C854D1090FB6F894DEBF24
:103D30000FBECDBF4C0168AF5AAF49AF27963FAF1A
:103D40002EAF279721961FAF0EAF21972996FFAE72
:103D5000EEAE29972396DFAECEAE2397DC011A96FE
:103D60008D919C910E94D208882309F4BBC1B8AD03
:103D7000BB2351F0B63041F0BD3131F0F40181A1E7
:103D800092A1019709F0AEC188AD8F508630A0F5A1
:103D9000D40154964D915D916D917C9157975096B9
:103DA000CD90DD90ED90FC905397C416D506E606B5
:103DB000F70610F46A017B01B2E4CB0ED11CE11CC2
:103DC000F11C0E940903A7019601261B370B480B23
:103DD000590BDA01C901B7FDAAC0C4010E94071A34
:103DE0000E940903A7019601261B370B480B590BAC
:103DF000DA01C901B7FFF1CFF40180819181019708
:103E000009F0B7C082E090E0918380832281338102
:103E1000448155816681778180859185A0E0FE018E
:103E20007A960E94E43409F477C1FBABEAAB1DAA91
:103E30001CAA88E190E09FAB8EAB60E272E0CE01FD
:103E4000C2960E94A317D40112964C901297139613
:103E50005C90139714966C90149715967C90159718
:103E60001696BC91BBAFF401F781FCAFD401189654
:103E70002C90189719963C90198E9201A3016BAD66
:103E80007F2FC101A0E00E94E43409F459C0FE0173
:103E900079962596FFAFEEAF259727E130E03EAF4C
:103EA0002DAF8AE0A82EB12CC12CD12CE12CF12C05
:103EB00000E010E09201A3016BAD7CADC1010E9456
:103EC0008534F901E85CFD4F80812596AEADBFAD2C
:103ED00025978E932596BFAFAEAF2597EDADFEAD7E
:103EE0003197FEAFEDAF9AE0A92EB12CC12CD12CA9
:103EF000E12CF12C00E010E09201A3016BAD7CAD50
:103F0000C1010E94873429013A016BAF7CAF1C01CB
:103F1000A0E00E94E43421F04DAD5EAD452B09F6E2
:103F20006DAD7EAD6C0F7D1F6E5F7F4F0EC0D401F7
:103F300090968C91811160CFC4010E94071A5CCFCA
:103F400080E3888FBE01685E7F4FCE01C2960E94DB
:103F5000CB170CA91DA9015011092AA93BA9D12CE5
:103F6000C12CF12CE12C50E040E065E1C4010E943D
:103F70007F1E29AD3AAD232BB9F4D4015E960D9086
:103F8000BC91A02DBAAFA9AFAB2B71F4F401848D15
:103F9000958D019609F4D5C0958F848FF401048C1A
:103FA000F58DE02DFAAFE9AF27962EAD3FAD2797FF
:103FB00021960EAD1FAD21970B5F1F4F232B11F4E0
:103FC00005E010E029964EAD5FAD299790E080E0C6
:103FD000452B21F023968EAD9FAD2397080F191F17
:103FE00058AD598389AD9AAD9827892798279B8327
:103FF0008A8321968EAD9FAD21972396AEADBFAD3E
:1040000023978A0F9B1F9827892798279D838C8346
:10401000D4011A96ED91FC9180819181DC01ED91A2
:10402000FC910280F381E02D45E050E0BE016F5F1E
:104030007F4F09957C0160E070E0CB010E94D602C1
:10404000B8ADBB2309F444C02196EEADFFAD219776
:10405000EF2BE1F0D4011A96ED91FC9180819181D2
:10406000DC01ED91FC910280F381E02D21964EADB3
:104070005FAD219727966EAD7FAD27970995E80E26
:10408000F91E60E070E0CB010E94D6022396EEADEF
:10409000FFAD2397EF2BE1F0D4011A96ED91FC913F
:1040A00080819181DC01ED91FC910280F381E02D12
:1040B00023964EAD5FAD239729966EAD7FAD2997C0
:1040C0000995E80EF91E60E070E0CB010E94D6026F
:1040D000E016F106D9F1F40112A211A282859385AE
:1040E0000E94E508C85BDF4F0FB6F894DEBF0FBE35
:1040F000CDBFDF91CF911F910F91FF90EF90DF9097
:10410000CF90BF90AF909F908F907F906F905F9077
:104110004F903F902F900895FA83E9831C821B8271
:1041200084E090E09E838D8366E372E0CE01019689
:104130000E94A3170B811C810150110929813A812A
:104140000ECF81E090E0958F848F28CF0E940903E5
:10415000D40154966D937D938D939C935797C2CFC2
:10416000CF92DF92EF92FF920F931F93CF93DF9343
:10417000CDB7DEB7C658D1090FB6F894DEBF0FBE73
:10418000CDBF8C01CE010196CF57DF4F9983888335
:10419000C158D040CD57DF4F19821882C358D04044
:1041A00080E890E0CB57DF4F99838883C558D04093
:1041B0006CE572E0CE018F579F4F0E94A31766E017
:1041C00070E0CE018F579F4F0E94E219B801CE01D7
:1041D0008F579F4F0E94CB17CD57DF4F0881198112
:1041E000C358D04001501109CF57DF4F2881398182
:1041F000C158D040D12CC12CF12CE12C50E040E032
:1042000064E18EEF95E00E947F1ECA57DF4F0FB624
:10421000F894DEBF0FBECDBFDF91CF911F910F91FC
:10422000FF90EF90DF90CF900895CF92DF92EF92C2
:10423000FF920F931F93CF93DF93CDB7DEB7C6588E
:10424000D1090FB6F894DEBF0FBECDBF7C018B0144
:10425000CE010196CF57DF4F99838883C158D04054
:10426000CD57DF4F19821882C358D04080E890E0C4
:10427000CB57DF4F99838883C558D0406CE572E0F7
:10428000CE018F579F4F0E94A317B701CE018F57C2
:104290009F4F0E94E219B801CE018F579F4F0E9495
:1042A000E219CD57DF4F08811981C358D040015022
:1042B0001109CF57DF4F28813981C158D040D12C07
:1042C000C12CF12CE12C50E040E064E18EEF95E050
:1042D0000E947F1ECA57DF4F0FB6F894DEBF0FBE95
:1042E000CDBFDF91CF911F910F91FF90EF90DF90A5
:1042F000CF9008958F929F92AF92BF92CF92DF920C
:10430000EF92FF920F931F93CF93DF93CDB7DEB75A
:10431000C75AD1090FB6F894DEBF0FBECDBF0E94B9
:104320003C086B017C01CE0101964C01CE55DF4F5C
:1043300099838883C25AD040CC55DF4F19821882A6
:10434000C45AD04020E8A22EB12CCA55DF4FB98202
:10435000A882C65AD0406CE572E08F559F4F0E94EC
:10436000A31761E070E0CE018E559F4F0E94E219C5
:104370008E010F571F4F23E045E0C701B6010E9491
:10438000802DB801CE018E559F4F0E94A317CC55AA
:10439000DF4F08811981C45AD04001501109CE5510
:1043A000DF4F28813981C25AD040D12CC12CF12C49
:1043B000E12C50E040E064E18EEF95E00E947F1E2A
:1043C0000E9468088C01CE55DF4F99828882C25ABC
:1043D000D040CC55DF4F19821882C45AD040CA55FC
:1043E000DF4FB982A882C65AD0406CE572E0CE0198
:1043F0008E559F4F0E94A31763E070E0CE018E554B
:104400009F4F0E94E2194AE0BE016F577F4FC801DB
:104410000E94DD2FBE016F577F4FCE018E559F4FFB
:104420000E94A317CC55DF4F08811981C45AD04090
:1044300001501109CE55DF4F28813981C25AD04031
:1044400050E040E064E18EEF95E00E947F1EC95588
:10445000DF4F0FB6F894DEBF0FBECDBFDF91CF9117
:104460001F910F91FF90EF90DF90CF90BF90AF9092
:104470009F908F9008951F920F920FB60F92112464
:104480002F933F938F939F93AF93BF9380913C045F
:1044900090913D04A0913E04B0913F0430913B04C3
:1044A00023E0230F2D3758F50196A11DB11D209350
:1044B0003B0480933C0490933D04A0933E04B0934E
:1044C0003F048091400490914104A0914204B09136
:1044D00043040196A11DB11D8093400490934104B3
:1044E000A0934204B0934304BF91AF919F918F91E9
:1044F0003F912F910F900FBE0F901F90189526E8B7
:10450000230F0296A11DB11DD2CF1F920F920FB69D
:104510000F9211242F933F934F935F936F937F9349
:104520008F939F93AF93BF93EF93FF9381E694E0B4
:104530000E94E603FF91EF91BF91AF919F918F9100
:104540007F916F915F914F913F912F910F900FBE8F
:104550000F901F9018951F920F920FB60F92112473
:104560002F938F939F93EF93FF93E0917104F091BA
:1045700072048081E0917704F091780482FD1BC081
:10458000908180917A048F5F8F7320917B048217D2
:1045900041F0E0917A04F0E0EF59FB4F958F809362
:1045A0007A04FF91EF919F918F912F910F900FBE01
:1045B0000F901F9018958081F4CF1F920F920FB625
:1045C0000F9211242F933F934F935F936F937F9399
:1045D0008F939F93AF93BF93EF93FF938091B90015
:1045E000887F803609F44AC0F0F5883209F4A7C004
:1045F00018F5803109F49BC0B8F4882309F4F9C098
:10460000883009F494C0FF91EF91BF91AF919F91D1
:104610008F917F916F915F914F913F912F910F906B
:104620000FBE0F901F901895883109F488C0803212
:1046300051F78093970314C0803409F49DC040F46F
:104640008033B9F38833F9F68093970385ECB0C0D3
:10465000803509F485C0883509F496C0883499F608
:104660000E940B18D0CF883909F48CC038F58837F0
:1046700029F050F4883611F0803729F683E08093D2
:1046800099031092720357C0883809F47BC08039AF
:1046900019F0803809F0B7CF80917203803208F0AA
:1046A00071C0E091720381E08E0F8093720380915C
:1046B000BB00F0E0EE5AFC4F80833DC0803B39F0F8
:1046C000E0F4803A09F479C0883A09F09CCF84E09C
:1046D000809399031092510310925003E09131049A
:1046E000F091320409958091500381110FC081E04F
:1046F000809350031092300309C0803C09F4A6CF88
:10470000883C09F4A3CF883B09F07DCFE0915103A9
:1047100081E08E0F80935103F0E0E05DFC4F8081DB
:104720008093BB00909151038091500329C08091E8
:1047300074038093BB0085EC8093BC0064CF9091A0
:10474000960380919503981758F5E091960381E0C0
:104750008E0F80939603F0E0EB58FC4F8081E9CFF9
:10476000E091960381E08E0F809396038091BB00C9
:10477000F0E0EB58FC4F8083909196038091950375
:104780009817C8F285E8D8CFE091960381E08E0FA4
:10479000809396038091BB00F0E0EB58FC4F808340
:1047A0008091980381115CCF81E08093730384EA48
:1047B0008093BC001092990326CF85EC8093BC00B7
:1047C0001092990380917203803230F4E091720369
:1047D000F0E0EE5AFC4F10826091720370E0E091BD
:1047E0002F04F091300482E593E009951092720352
:1047F0000ACF1092970334CFDC01ED91FC91119711
:10480000309761F012962D913C911397E217F307C0
:1048100028F401900020E9F7ED93FC930895FC0142
:1048200080819181009739F022813381821793072B
:1048300010F40C94672F90E080E00895AF92BF923F
:10484000CF92DF92EF92FF920F931F93CF93DF935C
:10485000CDB7DEB7CC5CD1090FB6F894DEBF0FBE82
:10486000CDBF5C01CE0189579F4FC953DF4F99835C
:104870008883C75CD040C753DF4F19821882C95C58
:10488000D04080E490E0C553DF4F99838883CB5CB0
:10489000D04069E472E0CE0189539F4F0E94A31774
:1048A0006EE472E0CE0189539F4F0E94CB1746E819
:1048B00050E06AE671E0CE0101960E94AC2FC7532A
:1048C000DF4FC880D980C95CD04081E0C81AD108C8
:1048D000C953DF4FE880F980C75CD04006E810E09C
:1048E0009E012F5F3F4F50E040E061E1C5010E9413
:1048F0007F1EC453DF4F0FB6F894DEBF0FBECDBF8F
:10490000DF91CF911F910F91FF90EF90DF90CF90AB
:10491000BF90AF900895E1E6F4E01382128288EE32
:1049200093E0A0E0B0E084839583A683B78329E673
:1049300031E03183208325EC30E03587248724EC77
:1049400030E03787268720EC30E0318B208B21EC5C
:1049500030E0338B228B22EC30E0358B248B26EC3D
:1049600030E0378B268B118E128E138E148EEEEF65
:10497000F4E01382128284839583A683B7838BE746
:1049800091E091838083EAE0F5E08BEC91E0918304
:1049900080831282138214821582E0E1F5E0918314
:1049A00080831282138214821582E6E1F5E09183FE
:1049B00080831282138214821582ECE1F5E09183E8
:1049C00080831282138214821582E2E2F5E09183E1
:1049D00080831282138214821582EEE2F5E09183C5
:1049E00080831282138214821582E8E2F5E09183BB
:1049F00080831282138214821582E4E3F5E09183AE
:104A000080831282138214821582EAE3F5E0918397
:104A100080831282138214821582E3E4F6E091838C
:104A200080831282138214821582E4E3F6E01382FB
:104A3000128229E931E03183208324E0248728EEA3
:104A400033E036872587A7E2B6E013969C938E93D2
:104A5000129714961D921D921D921C9217971996EB
:104A60001C921E9218971B961C921E921A971C96C7
:104A70001C921C971196FC93EE9340E757E160E07F
:104A800070E04483558366837783EEEFF5E011820F
:104A90001082128213821482158216821782108667
:104AA0001186B387A2871586148617861686108A04
:104AB000118A128A138A148A158A168A178A108E06
:104AC000118E128E138E158E148E178E168E10A2C6
:104AD00012A211A28FEF9FEF9093FD058093FC052A
:104AE000E0E4F5E0138212828DE891E09183808307
:104AF00087E2848380E1818782E08287138608953C
:104B0000CF93DF93CDB7DEB7E3970FB6F894DEBF50
:104B10000FBECDBF789484B5826084BD84B58160BA
:104B200084BD85B5826085BD85B5816085BD809178
:104B30006E00816080936E001092810080918100F0
:104B400082608093810080918100816080938100E8
:104B5000809180008160809380008091B1008460AA
:104B60008093B1008091B00081608093B00080910B
:104B70007A00846080937A0080917A0082608093CA
:104B80007A0080917A00816080937A0080917A0027
:104B9000806880937A001092C1008EEF8093210686
:104BA0009DEE909322062AEB209323068093240601
:104BB000809325069093260620E031E0D9010D90E0
:104BC0000020E9F79D0121503140A0E0B1E0E1E093
:104BD000F0E0AD01405051404217530784F4AF015B
:104BE0004F5F5F4F6D91E250FA4F83A1862783A3F9
:104BF0004630510514F041E050E0FA01EACF8091CF
:104C0000270481112AC010920F0410920E0488EE1E
:104C100093E0A0E0B0E08093100490931104A0937F
:104C20001204B09313048FE391E090930D048093EA
:104C30000C048BEC91E090931B0480931A04109267
:104C40001C0410921D0410921E0410921F0484E094
:104C50008093240481E08093270489EC93E090936F
:104C6000C8038093C7038091C6038111ADC060E380
:104C700072E080E090E00E94D602DFB6F8940AE18C
:104C800012E0EEE2EE2EE2E0FE2E8091C4038111EE
:104C900025C0F8018491F7019491E82FF0E0EE0F20
:104CA000FF1FEE50FE4FA591B4918C91982321F4F3
:104CB00061E08AE00E94D50161E08AE00E9403027F
:104CC0008CB580618CBD8CB580648CBD61E08DE05D
:104CD0000E94030261E08BE00E9403028091C40302
:104CE0008F5F8093C403DFBEF8010491E02FF0E0F2
:104CF000EE0FFF1FE450FE4F859194919093C303F4
:104D00008093C203F701E490E092C10361E08AE07E
:104D10000E9403020E94660680E591E00E949301D2
:104D200084E38093600480E80E9432070E943C0C78
:104D3000882309F4FDC188E00E9432070E94290CF3
:104D4000883009F0F5C180E10E9432070E94290CE9
:104D5000803109F0EDC180E00E9432070E94290CE9
:104D6000182F8111E5C141E050E0BE016F5F7F4F18
:104D70008FE190E00E94B40A8981833009F0D8C1A4
:104D800080E48093C50342E06EE170E0812F0E94D1
:104D90008E0742E06FE170E0812F0E948E071F5F57
:104DA000143089F740E06EE170E0812F0E948E0799
:104DB00040E06FE170E0812F0E948E071F5F183086
:104DC00089F781E08093C60380E591E00E9493011A
:104DD00046E050E061E276E089E090E00E948206E1
:104DE0008BEC91E09A8389831B821C821D821E8238
:104DF00044E050E0BE016D5F7F4F8FE090E00E9485
:104E000082060091C7031091C803D80192961D92A3
:104E10001D921D921C929597F80116A217A210A63A
:104E200011A69A961D921D921D921C929D9780E646
:104E30009AEEA0E0B0E086AB97ABA0AFB1AF80EA4E
:104E40009FE0A0E0B0E082AF93AFA4AFB5AFD801D0
:104E5000189686E0FD01282F11922A95E9F798010E
:104E6000225F3F4F94E1F90111929A95E9F7E1E24F
:104E7000F6E001900D928A95E1F72C5C3F4F39AB3B
:104E800028ABD9011C920E940F2F2FEC37E040E095
:104E900050E00E945D33DC01CB010196A11DB11DE4
:104EA000F80184839583A683B78380839183A2834B
:104EB000B3835801F3E4AF0EB11CC5010E94840B0B
:104EC00064E470E0C5010E94ED0E882309F499C1E5
:104ED0000E9409032B013C0143E0242E58EEC52E0D
:104EE00053E0D52EE12CF12C912C812CA8A9B9A945
:104EF0008C918330B9F181118EC1F8018481958143
:104F0000A681B7810196A11DB11D84839583A683D7
:104F1000B7830E9409036419750986099709A701D7
:104F200096010E94C633A90161E0C8010E9495164E
:104F300081E0A8A9B9A98C93F1E08F169104B1F290
:104F40000E9409036419750986099709D801D69644
:104F50002D913D914D915C91D997261737074807C0
:104F6000590710F6C5010E94840BF80184819581D0
:104F7000A681B7810196A11DB11D84839583A68367
:104F8000B7830E940903F801FE96608371838283D0
:104F900093838A94892809F034C180E591E00E94C6
:104FA00093010091C7031091C803B801625F7F4F5E
:104FB000CE0101960E94921244E050E0BE016D5F66
:104FC0007F4F8FE090E00E948206B8016A5E7F4FBB
:104FD000CE0101960E94921244E050E0BE016D5F46
:104FE0007F4F81E090E00E948206B8016E5E7F4FA5
:104FF000CE0101960E94921244E050E0BE016D5F26
:105000007F4F85E090E00E948206B801625E7F4F8C
:10501000CE0101960E9492128B819C81AD81BE814E
:1050200080932A0590932B05A0932C05B0932D0512
:105030000E94B1027F738091210190912201682723
:105040007927709322016093210168EE73E080E07C
:1050500090E00E94D6028BEC91E09A8389831B82B8
:105060001C821D821E8280E591E00E94930144E033
:1050700050E0BE016D5F7F4F8FE090E00E94B40A68
:1050800080E091E090930B0680930A060E9409034A
:10509000DC01CB0188589341A109B1098093120624
:1050A00090931306A0931406B093150680930E06F2
:1050B00090930F06A0931006B093110680931606E6
:1050C00090931706A0931806B0931906E09108066E
:1050D000F09109068FE592E09187808780E590E066
:1050E0009387828780910806909109060E94E508BF
:1050F0001092200610921F060E9409034B015C01CA
:1051000080911F0690912006019709F451C10E94D9
:105110000903681979098A099B0960357644810574
:10512000910508F045C18EEF95E00E94071AE8CF7F
:1051300087E38093600480E80E9432070E943C0C61
:10514000882329F188E00E9432070E94290C8830C8
:10515000F1F480E10E9432070E94290C182F80315F
:10516000B1F480E00E9432070E94290C81110FC027
:1051700041E050E0BE016F5F7F4F89E390E00E9405
:10518000B40A8981843019F41093C5031ACE83E3DD
:105190008093600480E80E9432070E943C0C8823C0
:1051A00071F180E10E9432070E94290C803139F5AB
:1051B00082E10E9432070E94290C823101F580E0D1
:1051C0000E9432070E94290C811119C084E080934B
:1051D000C50315E51FA741E050E0BE01615D7F4FAB
:1051E0008BE190E00E9482061EA741E050E0BE01E4
:1051F000625D7F4F8AE190E00E948206E2CD1092CC
:10520000600460E177E280E090E00E94D602F0E086
:10521000E0E00995FFCF843001F5F80184819581A4
:10522000A681B7810196A11DB11D84839583A683B4
:10523000B7830E9409036419750986099709A701B4
:1052400096010E94C633A90163E0C8010E94951629
:10525000E2E0A8A9B9A9EC936FCE813069F5D80135
:10526000DA964D915D916D917C91DD979E012F5F56
:105270003F4FC8010E944318382EB2E08B1391C0F3
:1052800089819A81AB81BC81F80184839583A6834F
:10529000B7830E9409036419750986099709A70154
:1052A00096010E94C633A90163E0C8010E949516C9
:1052B000A8A9B9A93C9240CE823009F03DCEF801B0
:1052C00042AD53AD64AD75AD9E012F5F3F4FC80138
:1052D0000E944318382EF5E08F135CC0A8A9B9A925
:1052E0002C92F80182A193A1A4A1B5A1892B8A2BAC
:1052F0008B2B41F424E833E040E050E022A333A3B9
:1053000044A355A3F80186A197A1A0A5B1A5892B17
:105310008A2B8B2B61F482A193A1A4A1B5A1B69590
:10532000A7959795879586A397A3A0A7B1A7F801FE
:1053300082A593A5A4A5B5A5892B8A2B8B2BA9F4AF
:1053400082A193A1A4A1B5A1AC01BD0123E07695F2
:105350006795579547952A95D1F7841B950BA60B12
:10536000B70B82A793A7A4A7B5A7F80186A197A119
:10537000A0A5B1A586A797A7A0ABB1AB82A593A521
:10538000A4A5B5A582AB93ABA4ABB5AB882483949D
:10539000912CD2CDF6E08F1304C0A8A9B9A91C9214
:1053A000CBCDBFEF3B12C8CDE8A9F9A91082C4CD7F
:1053B00080911F0690912006019709F093CE1092DC
:1053C00036041092350410923404109233040E9473
:1053D000A10485E193E0909332048093310486E147
:1053E00093E09093300480932F04109245058091B0
:1053F0004A05823018F098E090934505809348055F
:1054000062E370E080E090E00E94D60260914B057C
:1054100080E495E00E94650568EE73E080E090E02E
:105420000E94D60260E380E495E00E94C3090BE489
:1054300016E4C8010197F1F760E380E495E00E946B
:10544000C309C8010197F1F760E380E495E00E9489
:10545000C30983E592E00197F1F760E280E495E00B
:105460000E94C30960914505606240E080E495E0D8
:105470000E94DC0984E08093460540E06CE080E413
:1054800095E00E94DC0940E061E080E495E00E9444
:10549000DC090BE31FE1C8010197F1F742E0F42EAC
:1054A000F092470540E066E080E495E00E94DC0968
:1054B00040E062E080E495E00E94DC09C8010197C9
:1054C000F1F788E080934B0560E080E495E00E946E
:1054D000650540E061E080E495E00E94DC09C801D8
:1054E0000197F1F740E062E080E495E00E94DC097A
:1054F000C8010197F1F761E083E00E94030261E0D7
:1055000085E00E94030261E084E00E94030260E003
:1055100085E00E94D50160E084E00E94D50160E052
:1055200080E00E94F3098BE692E00E946A0961E044
:1055300080E00E94F3098EE692E00E946A09E09101
:105540007104F0917204F082E0916D04F0916E04A8
:105550001082E0916F04F091700487E680831092CE
:105560007904E0917504F091760486E08083E091FF
:105570007304F0917404808180618083E0917304EE
:10558000F0917404808188608083E0917304F091CD
:105590007404808180688083E0917304F0917404C6
:1055A00080818F7D80838FEF90E00E9455048FEF84
:1055B00090E00E9455048FEF90E00E945504809186
:1055C000FC059091FD0597FF22C00E940903ECE4C1
:1055D000F5E050E040E026E1249FD001259FB00D8A
:1055E00011248D01045B1A4FD801322F1D923A9578
:1055F000E9F760837183828393834F5F5F4F769671
:105600004830510549F71092FD051092FC05809134
:10561000FC059091FD050897CCF5ECE4F5E090E0F1
:1056200080E024813581232B09F01BC2268137813C
:10563000232B09F016C226E1289F8001299F100D17
:105640001124045B1A4F84EF91E0A0E0B0E0F80170
:1056500083879487A587B6878AE791E295838483B9
:105660001286108A178681E0838B0E940903D80175
:105670006D937D938D939C9313978091FC059091EE
:10568000FD0501969093FD058093FC05CC24CA94FA
:1056900023E0D22E22242394312C8FE00E949C02FE
:1056A000B601681B790B769567957695679583E0CB
:1056B0000E943F0264E670E080E090E00E94D60223
:1056C00019A618A61BA61AA61DA61CA670E060E0C7
:1056D000CE0188960E94E31728A539A58111C8C17B
:1056E0002115310519F0C9010E943A2E19A618A6F4
:1056F0001DA61CA61BA61AA60E943C081BA21AA245
:105700001DA21CA21FA21EA28E010F5F1F4F22E02E
:1057100044E00E94802D7C01009709F4B8C1FC018F
:1057200001900020E9F731978F01081B190BB80190
:10573000CE0182960E94E3172AA13BA18111A0C14C
:105740002115310519F0C9010E943A2E1BA21AA297
:105750001FA21EA21DA21CA288A599A5009709F44C
:105760009EC16AA17BA16115710509F496C14AA584
:105770005BA52EA13FA14217530708F48EC10E94DA
:10578000D9358EA19FA19DA78CA71FA21EA28AA179
:105790009BA1009711F00E943A2E60E082E00E94E7
:1057A000F3094CA55DA568A579A580E495E00E9464
:1057B00068030E9468088C0190933A04809339042E
:1057C00061E082E00E94F309A80170E060E02AE055
:1057D00080E495E00E9411090E943C0820E030E03E
:1057E0004CE052E40E946934181604F580913704A5
:1057F0008823E1F01092370460E085E00E94D50133
:1058000060E087E00E94F30980E092E00E946A096C
:1058100081E792E00E94B02086E992E00E94B020E9
:1058200070E060E082E090E00E94152180913904F0
:1058300090913A04803D9740F8F4809138048111AA
:105840001BC00E94600861E087E00E94F30983EEBC
:1058500091E00E946A0981E08093380461E070E081
:1058600084E090E00E9415218AEA92E00E94B02034
:105870008DEC92E00E94B0208091390490913A041E
:10588000883B9B40F1F4809138048823D1F00E943A
:10589000580861E087E00E94F3098DEE91E00E94D4
:1058A0006A091092380470E060E084E090E00E94A1
:1058B000152185EE92E00E94B02084EF92E00E94D4
:1058C000B0208EEF95E00E94071A0E9409032B0179
:1058D0003C018CE4E82E85E0F82E8701D80155962E
:1058E0001C921E92549714968D919C911597892B1A
:1058F00031F416968D919C91892B09F449C0D801F9
:105900002D913D914D915C91139728AB39AB4AABEA
:105910005BABC301B201621B730B840B950B1B962F
:105920008D909D90AD90BC901E97681579058A0565
:105930009B0570F181149104A104B10409F4C0C065
:10594000A50194010E94C633C501B4010E946E34C2
:1059500028A939A94AA95BA9620F731F841F951F43
:10596000D8016D937D938D939C931397D801539693
:105970008C915397882361F01F962D913C915097FD
:105980002115310509F0A2C055963C922E925497EC
:105990000A5E1F4F35E00C3F130709F09FCF10E060
:1059A00000E0D70154968D919C915597892BE9F190
:1059B0001A968C911A97882309F49DC01696ED913A
:1059C000FC91179718968D919C910995F701848900
:1059D0009589029751F58091FC059091FD05892BE1
:1059E00021F184819581892B21F486819781892BEE
:1059F000E1F026E1209FF001219FF00D1124E45BEE
:105A0000FA4FDF011D922A95E9F70E940903F70179
:105A100060837183828393838091FC059091FD055F
:105A200001979093FD058093FC050F5F1F4FF6E1F2
:105A3000EF0EF11C0830110509F0B3CF88A599A528
:105A4000009711F00E943A2E20E030E0232B09F459
:105A500024CE0E94D203882309F41FCE0E940000A6
:105A60001CCE019676968830910509F0DACD0ECEDF
:105A70001DA61CA66CEC72E0C9010E94D9353CCE73
:105A80001FA30EA3B701C9010E94D93565CE8AA113
:105A90009BA1009709F058CE59CE0E943A2E8AA1B8
:105AA0009BA199A788A78CA19DA19BA78AA78EA13E
:105AB0009FA19DA78CA71BA21AA21DA21CA265CE06
:105AC000F801408251826282738250CFF80181894D
:105AD00092898217930708F05BCF358A248A019652
